{
  "_format": "hh-sol-artifact-1",
  "contractName": "Course",
  "sourceName": "contracts/Course.sol",
  "abi": [
    {
      "inputs": [
        {
          "internalType": "string",
          "name": "_name",
          "type": "string"
        },
        {
          "internalType": "string",
          "name": "_symbol",
          "type": "string"
        },
        {
          "internalType": "uint256",
          "name": "_price",
          "type": "uint256"
        },
        {
          "internalType": "string",
          "name": "_baseTokenURI",
          "type": "string"
        },
        {
          "internalType": "bool",
          "name": "_isCrowdfund",
          "type": "bool"
        },
        {
          "internalType": "uint256",
          "name": "_crowdfundPeriod",
          "type": "uint256"
        },
        {
          "internalType": "uint256",
          "name": "_crowdfundGoalStudentCount",
          "type": "uint256"
        },
        {
          "internalType": "uint256",
          "name": "_refundPeriod",
          "type": "uint256"
        },
        {
          "internalType": "address[]",
          "name": "_tutors",
          "type": "address[]"
        },
        {
          "internalType": "uint256[]",
          "name": "_tutorsPercent",
          "type": "uint256[]"
        },
        {
          "internalType": "uint256",
          "name": "_QnABoardShare",
          "type": "uint256"
        }
      ],
      "stateMutability": "nonpayable",
      "type": "constructor"
    },
    {
      "inputs": [],
      "name": "ApprovalCallerNotOwnerNorApproved",
      "type": "error"
    },
    {
      "inputs": [],
      "name": "ApprovalQueryForNonexistentToken",
      "type": "error"
    },
    {
      "inputs": [],
      "name": "ApproveToCaller",
      "type": "error"
    },
    {
      "inputs": [],
      "name": "BalanceQueryForZeroAddress",
      "type": "error"
    },
    {
      "inputs": [],
      "name": "MintERC2309QuantityExceedsLimit",
      "type": "error"
    },
    {
      "inputs": [],
      "name": "MintToZeroAddress",
      "type": "error"
    },
    {
      "inputs": [],
      "name": "MintZeroQuantity",
      "type": "error"
    },
    {
      "inputs": [],
      "name": "OwnerQueryForNonexistentToken",
      "type": "error"
    },
    {
      "inputs": [],
      "name": "OwnershipNotInitializedForExtraData",
      "type": "error"
    },
    {
      "inputs": [],
      "name": "TransferCallerNotOwnerNorApproved",
      "type": "error"
    },
    {
      "inputs": [],
      "name": "TransferFromIncorrectOwner",
      "type": "error"
    },
    {
      "inputs": [],
      "name": "TransferToNonERC721ReceiverImplementer",
      "type": "error"
    },
    {
      "inputs": [],
      "name": "TransferToZeroAddress",
      "type": "error"
    },
    {
      "inputs": [],
      "name": "URIQueryForNonexistentToken",
      "type": "error"
    },
    {
      "anonymous": false,
      "inputs": [
        {
          "indexed": true,
          "internalType": "address",
          "name": "owner",
          "type": "address"
        },
        {
          "indexed": true,
          "internalType": "address",
          "name": "approved",
          "type": "address"
        },
        {
          "indexed": true,
          "internalType": "uint256",
          "name": "tokenId",
          "type": "uint256"
        }
      ],
      "name": "Approval",
      "type": "event"
    },
    {
      "anonymous": false,
      "inputs": [
        {
          "indexed": true,
          "internalType": "address",
          "name": "owner",
          "type": "address"
        },
        {
          "indexed": true,
          "internalType": "address",
          "name": "operator",
          "type": "address"
        },
        {
          "indexed": false,
          "internalType": "bool",
          "name": "approved",
          "type": "bool"
        }
      ],
      "name": "ApprovalForAll",
      "type": "event"
    },
    {
      "anonymous": false,
      "inputs": [
        {
          "indexed": true,
          "internalType": "uint256",
          "name": "fromTokenId",
          "type": "uint256"
        },
        {
          "indexed": false,
          "internalType": "uint256",
          "name": "toTokenId",
          "type": "uint256"
        },
        {
          "indexed": true,
          "internalType": "address",
          "name": "from",
          "type": "address"
        },
        {
          "indexed": true,
          "internalType": "address",
          "name": "to",
          "type": "address"
        }
      ],
      "name": "ConsecutiveTransfer",
      "type": "event"
    },
    {
      "anonymous": false,
      "inputs": [
        {
          "indexed": true,
          "internalType": "address",
          "name": "previousOwner",
          "type": "address"
        },
        {
          "indexed": true,
          "internalType": "address",
          "name": "newOwner",
          "type": "address"
        }
      ],
      "name": "OwnershipTransferred",
      "type": "event"
    },
    {
      "anonymous": false,
      "inputs": [
        {
          "indexed": true,
          "internalType": "address",
          "name": "from",
          "type": "address"
        },
        {
          "indexed": true,
          "internalType": "address",
          "name": "to",
          "type": "address"
        },
        {
          "indexed": true,
          "internalType": "uint256",
          "name": "tokenId",
          "type": "uint256"
        }
      ],
      "name": "Transfer",
      "type": "event"
    },
    {
      "inputs": [],
      "name": "QnABoardShare",
      "outputs": [
        {
          "internalType": "uint256",
          "name": "",
          "type": "uint256"
        }
      ],
      "stateMutability": "view",
      "type": "function"
    },
    {
      "inputs": [],
      "name": "active",
      "outputs": [
        {
          "internalType": "bool",
          "name": "",
          "type": "bool"
        }
      ],
      "stateMutability": "view",
      "type": "function"
    },
    {
      "inputs": [
        {
          "internalType": "address",
          "name": "",
          "type": "address"
        }
      ],
      "name": "addrToTokenIDPlusOne",
      "outputs": [
        {
          "internalType": "uint256",
          "name": "",
          "type": "uint256"
        }
      ],
      "stateMutability": "view",
      "type": "function"
    },
    {
      "inputs": [
        {
          "internalType": "address",
          "name": "to",
          "type": "address"
        },
        {
          "internalType": "uint256",
          "name": "tokenId",
          "type": "uint256"
        }
      ],
      "name": "approve",
      "outputs": [],
      "stateMutability": "nonpayable",
      "type": "function"
    },
    {
      "inputs": [
        {
          "internalType": "address",
          "name": "owner",
          "type": "address"
        }
      ],
      "name": "balanceOf",
      "outputs": [
        {
          "internalType": "uint256",
          "name": "",
          "type": "uint256"
        }
      ],
      "stateMutability": "view",
      "type": "function"
    },
    {
      "inputs": [],
      "name": "baseTokenURI",
      "outputs": [
        {
          "internalType": "string",
          "name": "",
          "type": "string"
        }
      ],
      "stateMutability": "view",
      "type": "function"
    },
    {
      "inputs": [],
      "name": "crowdFundStart",
      "outputs": [],
      "stateMutability": "nonpayable",
      "type": "function"
    },
    {
      "inputs": [],
      "name": "crowdfundEnd",
      "outputs": [],
      "stateMutability": "nonpayable",
      "type": "function"
    },
    {
      "inputs": [],
      "name": "crowdfundEndTime",
      "outputs": [
        {
          "internalType": "uint256",
          "name": "",
          "type": "uint256"
        }
      ],
      "stateMutability": "view",
      "type": "function"
    },
    {
      "inputs": [],
      "name": "crowdfundGoalStudentCount",
      "outputs": [
        {
          "internalType": "uint256",
          "name": "",
          "type": "uint256"
        }
      ],
      "stateMutability": "view",
      "type": "function"
    },
    {
      "inputs": [],
      "name": "crowdfundPeriod",
      "outputs": [
        {
          "internalType": "uint256",
          "name": "",
          "type": "uint256"
        }
      ],
      "stateMutability": "view",
      "type": "function"
    },
    {
      "inputs": [],
      "name": "crowdfundStarted",
      "outputs": [
        {
          "internalType": "bool",
          "name": "",
          "type": "bool"
        }
      ],
      "stateMutability": "view",
      "type": "function"
    },
    {
      "inputs": [],
      "name": "distributeRevenue",
      "outputs": [],
      "stateMutability": "nonpayable",
      "type": "function"
    },
    {
      "inputs": [],
      "name": "enroll",
      "outputs": [],
      "stateMutability": "payable",
      "type": "function"
    },
    {
      "inputs": [
        {
          "internalType": "uint256",
          "name": "tokenId",
          "type": "uint256"
        }
      ],
      "name": "getApproved",
      "outputs": [
        {
          "internalType": "address",
          "name": "",
          "type": "address"
        }
      ],
      "stateMutability": "view",
      "type": "function"
    },
    {
      "inputs": [
        {
          "internalType": "uint256",
          "name": "",
          "type": "uint256"
        }
      ],
      "name": "hasRefunded",
      "outputs": [
        {
          "internalType": "bool",
          "name": "",
          "type": "bool"
        }
      ],
      "stateMutability": "view",
      "type": "function"
    },
    {
      "inputs": [
        {
          "internalType": "address",
          "name": "owner",
          "type": "address"
        },
        {
          "internalType": "address",
          "name": "operator",
          "type": "address"
        }
      ],
      "name": "isApprovedForAll",
      "outputs": [
        {
          "internalType": "bool",
          "name": "",
          "type": "bool"
        }
      ],
      "stateMutability": "view",
      "type": "function"
    },
    {
      "inputs": [],
      "name": "isCrowdfund",
      "outputs": [
        {
          "internalType": "bool",
          "name": "",
          "type": "bool"
        }
      ],
      "stateMutability": "view",
      "type": "function"
    },
    {
      "inputs": [
        {
          "internalType": "uint256",
          "name": "",
          "type": "uint256"
        }
      ],
      "name": "mintPrice",
      "outputs": [
        {
          "internalType": "uint256",
          "name": "",
          "type": "uint256"
        }
      ],
      "stateMutability": "view",
      "type": "function"
    },
    {
      "inputs": [],
      "name": "name",
      "outputs": [
        {
          "internalType": "string",
          "name": "",
          "type": "string"
        }
      ],
      "stateMutability": "view",
      "type": "function"
    },
    {
      "inputs": [],
      "name": "owner",
      "outputs": [
        {
          "internalType": "address",
          "name": "",
          "type": "address"
        }
      ],
      "stateMutability": "view",
      "type": "function"
    },
    {
      "inputs": [
        {
          "internalType": "uint256",
          "name": "tokenId",
          "type": "uint256"
        }
      ],
      "name": "ownerOf",
      "outputs": [
        {
          "internalType": "address",
          "name": "",
          "type": "address"
        }
      ],
      "stateMutability": "view",
      "type": "function"
    },
    {
      "inputs": [
        {
          "internalType": "address",
          "name": "_recipient",
          "type": "address"
        }
      ],
      "name": "ownerReserve",
      "outputs": [],
      "stateMutability": "nonpayable",
      "type": "function"
    },
    {
      "inputs": [],
      "name": "platformFeeShare",
      "outputs": [
        {
          "internalType": "uint256",
          "name": "",
          "type": "uint256"
        }
      ],
      "stateMutability": "view",
      "type": "function"
    },
    {
      "inputs": [],
      "name": "price",
      "outputs": [
        {
          "internalType": "uint256",
          "name": "",
          "type": "uint256"
        }
      ],
      "stateMutability": "view",
      "type": "function"
    },
    {
      "inputs": [],
      "name": "qaBoard",
      "outputs": [
        {
          "internalType": "contract QnABoard",
          "name": "",
          "type": "address"
        }
      ],
      "stateMutability": "view",
      "type": "function"
    },
    {
      "inputs": [],
      "name": "refund",
      "outputs": [],
      "stateMutability": "nonpayable",
      "type": "function"
    },
    {
      "inputs": [],
      "name": "refundEndTime",
      "outputs": [
        {
          "internalType": "uint256",
          "name": "",
          "type": "uint256"
        }
      ],
      "stateMutability": "view",
      "type": "function"
    },
    {
      "inputs": [],
      "name": "refundPeriod",
      "outputs": [
        {
          "internalType": "uint256",
          "name": "",
          "type": "uint256"
        }
      ],
      "stateMutability": "view",
      "type": "function"
    },
    {
      "inputs": [],
      "name": "renounceOwnership",
      "outputs": [],
      "stateMutability": "nonpayable",
      "type": "function"
    },
    {
      "inputs": [
        {
          "internalType": "address",
          "name": "from",
          "type": "address"
        },
        {
          "internalType": "address",
          "name": "to",
          "type": "address"
        },
        {
          "internalType": "uint256",
          "name": "tokenId",
          "type": "uint256"
        }
      ],
      "name": "safeTransferFrom",
      "outputs": [],
      "stateMutability": "nonpayable",
      "type": "function"
    },
    {
      "inputs": [
        {
          "internalType": "address",
          "name": "from",
          "type": "address"
        },
        {
          "internalType": "address",
          "name": "to",
          "type": "address"
        },
        {
          "internalType": "uint256",
          "name": "tokenId",
          "type": "uint256"
        },
        {
          "internalType": "bytes",
          "name": "_data",
          "type": "bytes"
        }
      ],
      "name": "safeTransferFrom",
      "outputs": [],
      "stateMutability": "nonpayable",
      "type": "function"
    },
    {
      "inputs": [
        {
          "internalType": "address",
          "name": "operator",
          "type": "address"
        },
        {
          "internalType": "bool",
          "name": "approved",
          "type": "bool"
        }
      ],
      "name": "setApprovalForAll",
      "outputs": [],
      "stateMutability": "nonpayable",
      "type": "function"
    },
    {
      "inputs": [
        {
          "internalType": "string",
          "name": "baseURI",
          "type": "string"
        }
      ],
      "name": "setBaseURI",
      "outputs": [],
      "stateMutability": "nonpayable",
      "type": "function"
    },
    {
      "inputs": [
        {
          "internalType": "bytes4",
          "name": "interfaceId",
          "type": "bytes4"
        }
      ],
      "name": "supportsInterface",
      "outputs": [
        {
          "internalType": "bool",
          "name": "",
          "type": "bool"
        }
      ],
      "stateMutability": "view",
      "type": "function"
    },
    {
      "inputs": [],
      "name": "symbol",
      "outputs": [
        {
          "internalType": "string",
          "name": "",
          "type": "string"
        }
      ],
      "stateMutability": "view",
      "type": "function"
    },
    {
      "inputs": [
        {
          "internalType": "uint256",
          "name": "tokenId",
          "type": "uint256"
        }
      ],
      "name": "tokenURI",
      "outputs": [
        {
          "internalType": "string",
          "name": "",
          "type": "string"
        }
      ],
      "stateMutability": "view",
      "type": "function"
    },
    {
      "inputs": [],
      "name": "totalSupply",
      "outputs": [
        {
          "internalType": "uint256",
          "name": "",
          "type": "uint256"
        }
      ],
      "stateMutability": "view",
      "type": "function"
    },
    {
      "inputs": [
        {
          "internalType": "address",
          "name": "from",
          "type": "address"
        },
        {
          "internalType": "address",
          "name": "to",
          "type": "address"
        },
        {
          "internalType": "uint256",
          "name": "tokenId",
          "type": "uint256"
        }
      ],
      "name": "transferFrom",
      "outputs": [],
      "stateMutability": "nonpayable",
      "type": "function"
    },
    {
      "inputs": [
        {
          "internalType": "address",
          "name": "newOwner",
          "type": "address"
        }
      ],
      "name": "transferOwnership",
      "outputs": [],
      "stateMutability": "nonpayable",
      "type": "function"
    },
    {
      "inputs": [],
      "name": "tutorShare",
      "outputs": [
        {
          "internalType": "uint256",
          "name": "",
          "type": "uint256"
        }
      ],
      "stateMutability": "view",
      "type": "function"
    },
    {
      "inputs": [
        {
          "internalType": "uint256",
          "name": "",
          "type": "uint256"
        }
      ],
      "name": "tutors",
      "outputs": [
        {
          "internalType": "address",
          "name": "",
          "type": "address"
        }
      ],
      "stateMutability": "view",
      "type": "function"
    },
    {
      "inputs": [
        {
          "internalType": "uint256",
          "name": "",
          "type": "uint256"
        }
      ],
      "name": "tutorsPercent",
      "outputs": [
        {
          "internalType": "uint256",
          "name": "",
          "type": "uint256"
        }
      ],
      "stateMutability": "view",
      "type": "function"
    }
  ],
  "bytecode": "0x60806040523480156200001157600080fd5b50604051620034bc380380620034bc8339810160408190526200003491620004e3565b8a518b908b906200004d906002906020850190620001ea565b50805162000063906003906020840190620001ea565b50506000805550620000753362000198565b81518351146200008457600080fd5b600a89905587516200009e9060099060208b0190620001ea565b50600d80548815801560ff1992831617909255601180549091169091179055600e849055600b86905560108590558251620000e190601290602086019062000279565b508151620000f7906013906020850190620002d1565b50600d5460ff1662000113576200010f84426200067e565b600f555b60198190556200012581605a62000699565b601855604051309062000138906200030e565b6001600160a01b039091168152602001604051809103906000f08015801562000165573d6000803e3d6000fd5b50601480546001600160a01b0319166001600160a01b0392909216919091179055506200071c9950505050505050505050565b600880546001600160a01b038381166001600160a01b0319831681179093556040519116919082907f8be0079c531659141344cd1fd0a4f28419497f9722a3daafe3b4186f6b6457e090600090a35050565b828054620001f890620006b3565b90600052602060002090601f0160209004810192826200021c576000855562000267565b82601f106200023757805160ff191683800117855562000267565b8280016001018555821562000267579182015b82811115620002675782518255916020019190600101906200024a565b50620002759291506200031c565b5090565b82805482825590600052602060002090810192821562000267579160200282015b828111156200026757825182546001600160a01b0319166001600160a01b039091161782556020909201916001909101906200029a565b828054828255906000526020600020908101928215620002675791602002820182811115620002675782518255916020019190600101906200024a565b610c1e806200289e83390190565b5b808211156200027557600081556001016200031d565b600082601f8301126200034557600080fd5b815160206200035e620003588362000658565b62000625565b80838252828201915082860187848660051b89010111156200037f57600080fd5b6000805b86811015620003b65782516001600160a01b0381168114620003a3578283fd5b8552938501939185019160010162000383565b509198975050505050505050565b600082601f830112620003d657600080fd5b81516020620003e9620003588362000658565b80838252828201915082860187848660051b89010111156200040a57600080fd5b60005b858110156200042b578151845292840192908401906001016200040d565b5090979650505050505050565b805180151581146200044957600080fd5b919050565b600082601f8301126200046057600080fd5b81516001600160401b038111156200047c576200047c62000706565b602062000492601f8301601f1916820162000625565b8281528582848701011115620004a757600080fd5b60005b83811015620004c7578581018301518282018401528201620004aa565b83811115620004d95760008385840101525b5095945050505050565b60008060008060008060008060008060006101608c8e0312156200050657600080fd5b8b516001600160401b038111156200051d57600080fd5b6200052b8e828f016200044e565b60208e0151909c5090506001600160401b038111156200054a57600080fd5b620005588e828f016200044e565b60408e015160608f0151919c509a5090506001600160401b038111156200057e57600080fd5b6200058c8e828f016200044e565b9850506200059d60808d0162000438565b965060a08c0151955060c08c0151945060e08c015193506101008c015160018060401b03811115620005ce57600080fd5b620005dc8e828f0162000333565b6101208e015190945090506001600160401b03811115620005fc57600080fd5b6200060a8e828f01620003c4565b9250506101408c015190509295989b509295989b9093969950565b604051601f8201601f191681016001600160401b038111828210171562000650576200065062000706565b604052919050565b60006001600160401b0382111562000674576200067462000706565b5060051b60200190565b60008219821115620006945762000694620006f0565b500190565b600082821015620006ae57620006ae620006f0565b500390565b600181811c90821680620006c857607f821691505b60208210811415620006ea57634e487b7160e01b600052602260045260246000fd5b50919050565b634e487b7160e01b600052601160045260246000fd5b634e487b7160e01b600052604160045260246000fd5b612172806200072c6000396000f3fe60806040526004361061025b5760003560e01c8063715018a611610144578063a6a3b5b4116100b6578063c87b56dd1161007a578063c87b56dd146106a0578063d547cfb7146106c0578063e65f2a7e146106d5578063e6a72acf146106dd578063e985e9c51461070a578063f2fde38b1461075357600080fd5b8063a6a3b5b414610605578063ac193f201461061b578063b88d4fde1461063a578063c23fcdef1461065a578063c6d643511461068a57600080fd5b80638d1426a2116101085780638d1426a2146105705780638da5cb5b1461059057806395d89b41146105a55780639aeed9d5146105ba578063a035b1fe146105cf578063a22cb465146105e557600080fd5b8063715018a6146104fa5780637310c9541461050f57806373fddd161461052f578063859e0015146105455780638c7e8b841461055a57600080fd5b806320472f90116101dd57806342842e0e116101a157806342842e0e14610445578063544ae7c71461046557806355f804b314610485578063590e1ae3146104a55780636352211e146104ba57806370a08231146104da57600080fd5b806320472f90146103c457806323b872dd146103e45780632d07953a1461040457806339215dfe1461041957806339bd6f691461042f57600080fd5b8063079b30dd11610224578063079b30dd1461030a578063081812fc14610324578063095ea7b31461035c57806318160ddd1461037e5780631b9dbe931461039757600080fd5b80628dd0da1461026057806301ffc9a71461028857806302fb0c5e146102b857806303ff20a1146102d257806306fdde03146102e8575b600080fd5b34801561026c57600080fd5b50610275600a81565b6040519081526020015b60405180910390f35b34801561029457600080fd5b506102a86102a3366004611df6565b610773565b604051901515815260200161027f565b3480156102c457600080fd5b506011546102a89060ff1681565b3480156102de57600080fd5b50610275600c5481565b3480156102f457600080fd5b506102fd6107c5565b60405161027f9190611f2a565b34801561031657600080fd5b50600d546102a89060ff1681565b34801561033057600080fd5b5061034461033f366004611e79565b610857565b6040516001600160a01b03909116815260200161027f565b34801561036857600080fd5b5061037c610377366004611dcc565b61089b565b005b34801561038a57600080fd5b5060015460005403610275565b3480156103a357600080fd5b506102756103b2366004611c8a565b60176020526000908152604090205481565b3480156103d057600080fd5b50601454610344906001600160a01b031681565b3480156103f057600080fd5b5061037c6103ff366004611cd8565b61093b565b34801561041057600080fd5b5061037c610ac4565b34801561042557600080fd5b5061027560185481565b34801561043b57600080fd5b50610275600b5481565b34801561045157600080fd5b5061037c610460366004611cd8565b610bf6565b34801561047157600080fd5b5061037c610480366004611c8a565b610c16565b34801561049157600080fd5b5061037c6104a0366004611e30565b610c65565b3480156104b157600080fd5b5061037c610d42565b3480156104c657600080fd5b506103446104d5366004611e79565b610f45565b3480156104e657600080fd5b506102756104f5366004611c8a565b610f50565b34801561050657600080fd5b5061037c610f9f565b34801561051b57600080fd5b5061034461052a366004611e79565b610fda565b34801561053b57600080fd5b50610275600f5481565b34801561055157600080fd5b5061037c611004565b34801561056657600080fd5b5061027560195481565b34801561057c57600080fd5b5061027561058b366004611e79565b6110cc565b34801561059c57600080fd5b506103446110ed565b3480156105b157600080fd5b506102fd6110fc565b3480156105c657600080fd5b5061037c61110b565b3480156105db57600080fd5b50610275600a5481565b3480156105f157600080fd5b5061037c610600366004611d90565b611203565b34801561061157600080fd5b50610275600e5481565b34801561062757600080fd5b506011546102a890610100900460ff1681565b34801561064657600080fd5b5061037c610655366004611d14565b611299565b34801561066657600080fd5b506102a8610675366004611e79565b60156020526000908152604090205460ff1681565b34801561069657600080fd5b5061027560105481565b3480156106ac57600080fd5b506102fd6106bb366004611e79565b6112e3565b3480156106cc57600080fd5b506102fd611368565b61037c6113f6565b3480156106e957600080fd5b506102756106f8366004611e79565b60166020526000908152604090205481565b34801561071657600080fd5b506102a8610725366004611ca5565b6001600160a01b03918216600090815260076020908152604080832093909416825291909152205460ff1690565b34801561075f57600080fd5b5061037c61076e366004611c8a565b6114ec565b60006301ffc9a760e01b6001600160e01b0319831614806107a457506380ac58cd60e01b6001600160e01b03198316145b806107bf5750635b5e139f60e01b6001600160e01b03198316145b92915050565b6060600280546107d49061206e565b80601f01602080910402602001604051908101604052809291908181526020018280546108009061206e565b801561084d5780601f106108225761010080835404028352916020019161084d565b820191906000526020600020905b81548152906001019060200180831161083057829003601f168201915b5050505050905090565b600061086282611589565b61087f576040516333d1c03960e21b815260040160405180910390fd5b506000908152600660205260409020546001600160a01b031690565b60006108a682610f45565b9050336001600160a01b038216146108df576108c28133610725565b6108df576040516367d9dca160e11b815260040160405180910390fd5b60008281526006602052604080822080546001600160a01b0319166001600160a01b0387811691821790925591518593918516917f8c5be1e5ebec7d5bd14f71427d1e84f3dd0314c0f7b2291e5b200ac8c7c3b92591a4505050565b6000610946826115b0565b9050836001600160a01b0316816001600160a01b0316146109795760405162a1148160e81b815260040160405180910390fd5b600082815260066020526040902080546109a58187335b6001600160a01b039081169116811491141790565b6109d0576109b38633610725565b6109d057604051632ce44b5f60e11b815260040160405180910390fd5b6001600160a01b0385166109f757604051633a954ecd60e21b815260040160405180910390fd5b8015610a0257600082555b6001600160a01b038681166000908152600560205260408082208054600019019055918716808252919020805460010190554260a01b17600160e11b17600085815260046020526040902055600160e11b8316610a8d5760018401600081815260046020526040902054610a8b576000548114610a8b5760008181526004602052604090208490555b505b83856001600160a01b0316876001600160a01b031660008051602061211d83398151915260405160405180910390a4505050505050565b600f5442118015610ad65750600f5415155b610b205760405162461bcd60e51b81526020600482015260166024820152752932b33ab732103832b934b7b2103737ba1037bb32b960511b60448201526064015b60405180910390fd5b4760005b601354811015610bb657610ba460128281548110610b4457610b446120da565b600091825260209091200154601380546001600160a01b039092169184908110610b7057610b706120da565b9060005260206000200154606460185486610b8b919061200c565b610b959190611fea565b610b9f919061200c565b611611565b80610bae816120a9565b915050610b24565b50601454601954610be2916001600160a01b031690606490610bd8908561200c565b610b9f9190611fea565b610bf3610bed6110ed565b47611611565b50565b610c1183838360405180602001604052806000815250611299565b505050565b600060166000610c2560005490565b8152602081019190915260400160002055610c3f60005490565b610c4a906001611fd2565b33600090815260176020526040902055610bf381600161172a565b6000805b601254811015610cc657336001600160a01b031660128281548110610c9057610c906120da565b6000918252602090912001546001600160a01b03161415610cb45760019150610cc6565b80610cbe816120a9565b915050610c69565b508080610ceb5750610cd66110ed565b6001600160a01b0316336001600160a01b0316145b610d2f5760405162461bcd60e51b81526020600482015260156024820152742737ba1030903a3aba37b91037b91037bbb732b91760591b6044820152606401610b17565b8151610c11906009906020850190611b5f565b600f5442111580610d535750600f54155b610d985760405162461bcd60e51b81526020600482015260166024820152752932b33ab732103832b934b7b21034b99037bb32b91760511b6044820152606401610b17565b33600090815260176020526040902054610de15760405162461bcd60e51b815260206004820152600a602482015269125b9d985b1a5908125160b21b6044820152606401610b17565b33600090815260176020526040812054610dfd9060019061202b565b9050610e0881610f45565b6001600160a01b0316336001600160a01b031614610e5a5760405162461bcd60e51b815260206004820152600f60248201526e2737ba103a37b5b2b71037bbb732b960891b6044820152606401610b17565b60008181526015602052604090205460ff1615610eac5760405162461bcd60e51b815260206004820152601060248201526f105b1c9958591e481c99599d5b99195960821b6044820152606401610b17565b60008181526016602052604090205480610f045760405162461bcd60e51b81526020600482015260196024820152780526566756e6420616d6f756e742063616e6e6f74206265203603c1b6044820152606401610b17565b6000828152601560205260409020805460ff19166001179055610f2e610f273390565b308461093b565b610f3782611744565b610f413382611611565b5050565b60006107bf826115b0565b60006001600160a01b038216610f79576040516323d3ad8160e21b815260040160405180910390fd5b506001600160a01b031660009081526005602052604090205467ffffffffffffffff1690565b33610fa86110ed565b6001600160a01b031614610fce5760405162461bcd60e51b8152600401610b1790611f9d565b610fd8600061174f565b565b60128181548110610fea57600080fd5b6000918252602090912001546001600160a01b0316905081565b60115460ff16156110275760405162461bcd60e51b8152600401610b1790611f72565b600d5460ff166110495760405162461bcd60e51b8152600401610b1790611f3d565b600c544210156110975760405162461bcd60e51b815260206004820152601960248201527821b937bbb2333ab732103832b934b7b2103737ba1037bb32b960391b6044820152606401610b17565b60105460015460005403106110c5576011805460ff19166001179055600e546110c09042611fd2565b600f55565b6000600f55565b601381815481106110dc57600080fd5b600091825260209091200154905081565b6008546001600160a01b031690565b6060600380546107d49061206e565b336111146110ed565b6001600160a01b03161461113a5760405162461bcd60e51b8152600401610b1790611f9d565b60115460ff161561115d5760405162461bcd60e51b8152600401610b1790611f72565b600d5460ff1661117f5760405162461bcd60e51b8152600401610b1790611f3d565b601154610100900460ff16156111e25760405162461bcd60e51b815260206004820152602260248201527f5468652063726f776466756e642068617320616c726561647920737461727465604482015261321760f11b6064820152608401610b17565b600b546111ef9042611fd2565b600c556011805461ff001916610100179055565b6001600160a01b03821633141561122d5760405163b06307db60e01b815260040160405180910390fd5b3360008181526007602090815260408083206001600160a01b03871680855290835292819020805460ff191686151590811790915590519081529192917f17307eab39ab6107e8899845ad3d59bd9653f200f220920489ca2b5937696c31910160405180910390a35050565b6112a484848461093b565b6001600160a01b0383163b156112dd576112c0848484846117a1565b6112dd576040516368d2bf6b60e11b815260040160405180910390fd5b50505050565b60606112ee82611589565b61130b57604051630a14c4b560e41b815260040160405180910390fd5b6000611315611899565b90508051600014156113365760405180602001604052806000815250611361565b80611340846118a8565b604051602001611351929190611ebe565b6040516020818303038152906040525b9392505050565b600980546113759061206e565b80601f01602080910402602001604051908101604052809291908181526020018280546113a19061206e565b80156113ee5780601f106113c3576101008083540402835291602001916113ee565b820191906000526020600020905b8154815290600101906020018083116113d157829003601f168201915b505050505081565b33600090815260176020526040902054156114475760405162461bcd60e51b8152602060048201526011602482015270105b1c9958591e481c1d5c98da185cd959607a1b6044820152606401610b17565b600a543410156114995760405162461bcd60e51b815260206004820152601b60248201527f4e6f7420656e6f7567682066756e6420746f206d696e74204e465400000000006044820152606401610b17565b600a54601660006114a960005490565b81526020810191909152604001600020556114c360005490565b6114ce906001611fd2565b33600081815260176020526040902091909155610fd890600161172a565b336114f56110ed565b6001600160a01b03161461151b5760405162461bcd60e51b8152600401610b1790611f9d565b6001600160a01b0381166115805760405162461bcd60e51b815260206004820152602660248201527f4f776e61626c653a206e6577206f776e657220697320746865207a65726f206160448201526564647265737360d01b6064820152608401610b17565b610bf38161174f565b60008054821080156107bf575050600090815260046020526040902054600160e01b161590565b6000816000548110156115f857600081815260046020526040902054600160e01b81166115f6575b806113615750600019016000818152600460205260409020546115d8565b505b604051636f96cda160e11b815260040160405180910390fd5b804710156116615760405162461bcd60e51b815260206004820152601d60248201527f416464726573733a20696e73756666696369656e742062616c616e63650000006044820152606401610b17565b6000826001600160a01b03168260405160006040518083038185875af1925050503d80600081146116ae576040519150601f19603f3d011682016040523d82523d6000602084013e6116b3565b606091505b5050905080610c115760405162461bcd60e51b815260206004820152603a60248201527f416464726573733a20756e61626c6520746f2073656e642076616c75652c207260448201527f6563697069656e74206d617920686176652072657665727465640000000000006064820152608401610b17565b610f418282604051806020016040528060008152506118f7565b610bf3816000611964565b600880546001600160a01b038381166001600160a01b0319831681179093556040519116919082907f8be0079c531659141344cd1fd0a4f28419497f9722a3daafe3b4186f6b6457e090600090a35050565b604051630a85bd0160e11b81526000906001600160a01b0385169063150b7a02906117d6903390899088908890600401611eed565b602060405180830381600087803b1580156117f057600080fd5b505af1925050508015611820575060408051601f3d908101601f1916820190925261181d91810190611e13565b60015b61187b573d80801561184e576040519150601f19603f3d011682016040523d82523d6000602084013e611853565b606091505b508051611873576040516368d2bf6b60e11b815260040160405180910390fd5b805181602001fd5b6001600160e01b031916630a85bd0160e11b1490505b949350505050565b6060600980546107d49061206e565b604080516080810191829052607f0190826030600a8206018353600a90045b80156118e557600183039250600a81066030018353600a90046118c7565b50819003601f19909101908152919050565b6119018383611a8c565b6001600160a01b0383163b15610c11576000548281035b61192b60008683806001019450866117a1565b611948576040516368d2bf6b60e11b815260040160405180910390fd5b81811061191857816000541461195d57600080fd5b5050505050565b600061196f836115b0565b90508060008061198d86600090815260066020526040902080549091565b9150915084156119cd576119a2818433610990565b6119cd576119b08333610725565b6119cd57604051632ce44b5f60e11b815260040160405180910390fd5b80156119d857600082555b6001600160a01b038316600081815260056020526040902080546001600160801b030190554260a01b17600360e01b17600087815260046020526040902055600160e11b8416611a565760018601600081815260046020526040902054611a54576000548114611a545760008181526004602052604090208590555b505b60405186906000906001600160a01b0386169060008051602061211d833981519152908390a45050600180548101905550505050565b60005481611aad5760405163b562e8dd60e01b815260040160405180910390fd5b6001600160a01b03831660008181526005602090815260408083208054680100000000000000018802019055848352600490915281206001851460e11b4260a01b1783179055828401908390839060008051602061211d8339815191528180a4600183015b818114611b38578083600060008051602061211d833981519152600080a4600101611b12565b5081611b5657604051622e076360e81b815260040160405180910390fd5b60005550505050565b828054611b6b9061206e565b90600052602060002090601f016020900481019282611b8d5760008555611bd3565b82601f10611ba657805160ff1916838001178555611bd3565b82800160010185558215611bd3579182015b82811115611bd3578251825591602001919060010190611bb8565b50611bdf929150611be3565b5090565b5b80821115611bdf5760008155600101611be4565b600067ffffffffffffffff80841115611c1357611c136120f0565b604051601f8501601f19908116603f01168101908282118183101715611c3b57611c3b6120f0565b81604052809350858152868686011115611c5457600080fd5b858560208301376000602087830101525050509392505050565b80356001600160a01b0381168114611c8557600080fd5b919050565b600060208284031215611c9c57600080fd5b61136182611c6e565b60008060408385031215611cb857600080fd5b611cc183611c6e565b9150611ccf60208401611c6e565b90509250929050565b600080600060608486031215611ced57600080fd5b611cf684611c6e565b9250611d0460208501611c6e565b9150604084013590509250925092565b60008060008060808587031215611d2a57600080fd5b611d3385611c6e565b9350611d4160208601611c6e565b925060408501359150606085013567ffffffffffffffff811115611d6457600080fd5b8501601f81018713611d7557600080fd5b611d8487823560208401611bf8565b91505092959194509250565b60008060408385031215611da357600080fd5b611dac83611c6e565b915060208301358015158114611dc157600080fd5b809150509250929050565b60008060408385031215611ddf57600080fd5b611de883611c6e565b946020939093013593505050565b600060208284031215611e0857600080fd5b813561136181612106565b600060208284031215611e2557600080fd5b815161136181612106565b600060208284031215611e4257600080fd5b813567ffffffffffffffff811115611e5957600080fd5b8201601f81018413611e6a57600080fd5b61189184823560208401611bf8565b600060208284031215611e8b57600080fd5b5035919050565b60008151808452611eaa816020860160208601612042565b601f01601f19169290920160200192915050565b60008351611ed0818460208801612042565b835190830190611ee4818360208801612042565b01949350505050565b6001600160a01b0385811682528416602082015260408101839052608060608201819052600090611f2090830184611e92565b9695505050505050565b6020815260006113616020830184611e92565b6020808252818101527f5468697320636f75727365206973206e6f742063726f776466756e64696e672e604082015260600190565b60208082526011908201527021b7bab939b29034b99030b1ba34bb329760791b604082015260600190565b6020808252818101527f4f776e61626c653a2063616c6c6572206973206e6f7420746865206f776e6572604082015260600190565b60008219821115611fe557611fe56120c4565b500190565b60008261200757634e487b7160e01b600052601260045260246000fd5b500490565b6000816000190483118215151615612026576120266120c4565b500290565b60008282101561203d5761203d6120c4565b500390565b60005b8381101561205d578181015183820152602001612045565b838111156112dd5750506000910152565b600181811c9082168061208257607f821691505b602082108114156120a357634e487b7160e01b600052602260045260246000fd5b50919050565b60006000198214156120bd576120bd6120c4565b5060010190565b634e487b7160e01b600052601160045260246000fd5b634e487b7160e01b600052603260045260246000fd5b634e487b7160e01b600052604160045260246000fd5b6001600160e01b031981168114610bf357600080fdfeddf252ad1be2c89b69c2b068fc378daa952ba7f163c4a11628f55a4df523b3efa2646970667358221220afa2f9999669ba04de97823a45bc49421bfa013bcedd8610e37607c67739356c64736f6c63430008070033608060405234801561001057600080fd5b50604051610c1e380380610c1e83398101604081905261002f916100ad565b6100383361005d565b600280546001600160a01b0319166001600160a01b03929092169190911790556100dd565b600080546001600160a01b038381166001600160a01b0319831681178455604051919092169283917f8be0079c531659141344cd1fd0a4f28419497f9722a3daafe3b4186f6b6457e09190a35050565b6000602082840312156100bf57600080fd5b81516001600160a01b03811681146100d657600080fd5b9392505050565b610b32806100ec6000396000f3fe6080604052600436106100ab5760003560e01c8063715018a611610064578063715018a61461026457806376c7d020146102795780638da5cb5b1461029d578063cf2b277d146102bb578063de0490ef146102fb578063f2fde38b1461030e57600080fd5b806331b1b97814610141578063351e1bd01461018b5780633e90aa30146101ad578063442a9591146101ec5780635109a5f5146102245780636357b28e1461024457600080fd5b3661013c5760035447906000600a82116100c557816100c8565b600a5b905060006100d7600184610a87565b90505b6100e48284610a87565b8110610136576101246003828154811061010057610100610ae6565b6000918252602090912001546001600160a01b031661011f8487610a65565b61032e565b8061012e81610a9e565b9150506100da565b50505050005b600080fd5b34801561014d57600080fd5b5061016161015c3660046109f5565b610451565b604080516001600160a01b0390941684526020840192909252908201526060015b60405180910390f35b34801561019757600080fd5b506101ab6101a6366004610a0e565b61048e565b005b3480156101b957600080fd5b506101cd6101c8366004610a0e565b61063a565b604080516001600160a01b039093168352602083019190915201610182565b3480156101f857600080fd5b5061020c6102073660046109f5565b610680565b6040516001600160a01b039091168152602001610182565b34801561023057600080fd5b506101ab61023f366004610a0e565b6106aa565b34801561025057600080fd5b5060025461020c906001600160a01b031681565b34801561027057600080fd5b506101ab6107a9565b34801561028557600080fd5b5061028f60015481565b604051908152602001610182565b3480156102a957600080fd5b506000546001600160a01b031661020c565b3480156102c757600080fd5b506101cd6102d63660046109f5565b600560205260009081526040902080546001909101546001600160a01b039091169082565b6101ab610309366004610a0e565b6107df565b34801561031a57600080fd5b506101ab6103293660046109c5565b6108da565b804710156103835760405162461bcd60e51b815260206004820152601d60248201527f416464726573733a20696e73756666696369656e742062616c616e636500000060448201526064015b60405180910390fd5b6000826001600160a01b03168260405160006040518083038185875af1925050503d80600081146103d0576040519150601f19603f3d011682016040523d82523d6000602084013e6103d5565b606091505b505090508061044c5760405162461bcd60e51b815260206004820152603a60248201527f416464726573733a20756e61626c6520746f2073656e642076616c75652c207260448201527f6563697069656e74206d61792068617665207265766572746564000000000000606482015260840161037a565b505050565b6006818154811061046157600080fd5b60009182526020909120600390910201805460018201546002909201546001600160a01b03909116925083565b600682815481106104a1576104a1610ae6565b60009182526020909120600390910201546001600160a01b0316336001600160a01b0316146105425760405162461bcd60e51b815260206004820152604160248201527f416e737765722063616e206f6e6c79206265206163636570746564206173206360448201527f6f727265637420627920746865207175657374696f6e20696e69746961746f726064820152601760f91b608482015260a40161037a565b600082815260046020526040902080548290811061056257610562610ae6565b60009182526020808320858452600590915260409092206002909102909101805482546001600160a01b0319166001600160a01b0390911690811783556001918201549190920155600680546105db929190859081106105c4576105c4610ae6565b90600052602060002090600302016001015461032e565b506000908152600560205260408120546003805460018101825592527fc2575a0e9e593c00f959f8c92f12db2869c3395a3b0502d05e2516446f71f85b90910180546001600160a01b0319166001600160a01b03909216919091179055565b6004602052816000526040600020818154811061065657600080fd5b6000918252602090912060029091020180546001909101546001600160a01b039091169250905082565b6003818154811061069057600080fd5b6000918252602090912001546001600160a01b0316905081565b600682815481106106bd576106bd610ae6565b60009182526020909120600390910201546001600160a01b0316336001600160a01b0316141561074b5760405162461bcd60e51b815260206004820152603360248201527f416e7377657265722063616e6e6f74206265207468652073616d65206173207460448201527234329038bab2b9ba34b7b7103837b9ba32b91760691b606482015260840161037a565b6000918252600460209081526040808420815180830190925233825281830193845280546001808201835591865292909420905160029092020180546001600160a01b0319166001600160a01b039092169190911781559051910155565b6000546001600160a01b031633146107d35760405162461bcd60e51b815260040161037a90610a30565b6107dd6000610975565b565b8134101561083d5760405162461bcd60e51b815260206004820152602560248201527f526577617264206e6f7420676976656e20656e6f7567682061732073706563696044820152643334b2b21760d91b606482015260840161037a565b604051806060016040528061084f3390565b6001600160a01b031681526020018381526020018281525060066001548154811061087c5761087c610ae6565b6000918252602080832084516003939093020180546001600160a01b0319166001600160a01b03909316929092178255830151600180830191909155604090930151600290910155815491906108d183610ab5565b91905055505050565b6000546001600160a01b031633146109045760405162461bcd60e51b815260040161037a90610a30565b6001600160a01b0381166109695760405162461bcd60e51b815260206004820152602660248201527f4f776e61626c653a206e6577206f776e657220697320746865207a65726f206160448201526564647265737360d01b606482015260840161037a565b61097281610975565b50565b600080546001600160a01b038381166001600160a01b0319831681178455604051919092169283917f8be0079c531659141344cd1fd0a4f28419497f9722a3daafe3b4186f6b6457e09190a35050565b6000602082840312156109d757600080fd5b81356001600160a01b03811681146109ee57600080fd5b9392505050565b600060208284031215610a0757600080fd5b5035919050565b60008060408385031215610a2157600080fd5b50508035926020909101359150565b6020808252818101527f4f776e61626c653a2063616c6c6572206973206e6f7420746865206f776e6572604082015260600190565b600082610a8257634e487b7160e01b600052601260045260246000fd5b500490565b600082821015610a9957610a99610ad0565b500390565b600081610aad57610aad610ad0565b506000190190565b6000600019821415610ac957610ac9610ad0565b5060010190565b634e487b7160e01b600052601160045260246000fd5b634e487b7160e01b600052603260045260246000fdfea2646970667358221220fdf022846e686dce7ca6ae3d97225e05f530c61b16256455a9750001d86554b764736f6c63430008070033",
  "linkReferences": {},
  "deployedLinkReferences": {}
}